:100000000C9434000C943E000C943E000C943E0082
:100010000C943E000C943E000C943E000C943E0068
:100020000C943E000C943E000C943E000C943E0058
:100030000C943E000C943E000C943E000C943E0048
:100040000C943E000C943E000C943E000C943E0038
:100050000C943E000C943E000C943E000C943E0028
:100060000C943E000C943E0011241FBECFEFD8E04C
:10007000DEBFCDBF0E9440000C947C000C940000B9
:100080008FEF84B9AEE024EF31E0F8E1EDEB56E715
:100090004CE364EC79E0A5B9C9010197F1F7F5B932
:1000A000C9010197F1F7E5B9C9010197F1F755B910
:1000B000C9010197F1F745B9C9010197F1F745B9B0
:1000C000C9010197F1F745B9C9010197F1F755B990
:1000D000C9010197F1F7E5B9C9010197F1F7F5B940
:1000E000C9010197F1F7A5B9C9010197F1F715B851
:0C00F000CB010197F1F7CFCFF894FFCFC0
:00000001FF
