:100000000C9434000C943E000C943E000C943E0082
:100010000C943E000C943E000C943E000C943E0068
:100020000C943E000C943E000C943E000C943E0058
:100030000C943E000C943E000C943E000C943E0048
:100040000C943E000C943E000C943E000C943E0038
:100050000C943E000C943E000C943E000C943E0028
:100060000C943E000C943E0011241FBECFEFD8E04C
:10007000DEBFCDBF0E9440000C9463000C940000D2
:100080008FEF84B961E070E042E053E50CC0CB0132
:10009000022E02C0880F991F0A94E2F785B9CA019F
:1000A0000197F1F72F5F273090F3CB01022E02C0AA
:1000B000880F991F0A94E2F785B9CA010197F1F7F1
:0A00C000215099F7F0CFF894FFCF1C
:00000001FF
