:100000000C9434000C943E000C943E000C943E0082
:100010000C943E000C943E000C943E000C943E0068
:100020000C943E000C943E000C943E000C943E0058
:100030000C943E000C943E000C943E000C943E0048
:100040000C943E000C943E000C943E000C943E0038
:100050000C943E000C943E000C943E000C943E0028
:100060000C943E000C943E0011241FBECFEFD8E04C
:10007000DEBFCDBF0E9440000C9455000C940000E0
:10008000209A41E029E130E045B980E197E2F901A9
:100090003197F1F70197D9F715B880E197E2F901A7
:0E00A0003197F1F70197D9F7EFCFF894FFCF22
:00000001FF
